:100000000C943E000C945B000C945B000C945B0021
:100010000C945B000C945B000C945B000C945B00F4
:100020000C945B000C945B000C945B000C945B00E4
:100030000C945B000C94E2020C945B000C945B004B
:100040000C945B000C945B000C945B000C945B00C4
:100050000C9444020C945B000C945B000C945B00C9
:100060000C945B000C945B000C945B000C945B00A4
:100070000C9488060C945B000C945B0011241FBE4A
:10008000CFEFD8E0DEBFCDBF12E0A0E0B1E0E2E606
:10009000F3E102C005900D92AE39B107D9F713E034
:1000A000AEE9B2E001C01D92AE34B107E1F70E94A3
:1000B000ED030C94AF090C94000008950E9A169A63
:1000C000179A83E5982F9A95F1F716988A95F1F784
:1000D00017980895179883E5982F9A95F1F7179A2E
:1000E0008A95F1F7179808950E9A1698179A83E54E
:1000F000982F9A95F1F7169A8A95F1F7179808951F
:10010000482F0E9820E080E033E5880F179A932F50
:100110009A95F1F7069981601798932F9A95F1F7C0
:100120002F5F283091F70E9A442311F0169801C0E2
:10013000169A179A93E59A95F1F7179808950F93E1
:100140001F93082F0E9A10E007FF02C0169A01C0F5
:1001500016980E946A001F5F183011F0000FF4CF4C
:100160000E9883E58A95F1F7179A0699FECF83E5F5
:100170008A95F1F717981F910F9108950F931F9388
:10018000082F0E9A10E007FF02C0169A01C01698B9
:100190000E946A001F5F183011F0000FF4CF0E9814
:1001A00083E58A95F1F7179A069BFECF83E58A953A
:1001B000F1F717981F910F910895FF920F931F93D6
:1001C000182F092FF62E0E945E0080E90E949F00E2
:1001D000802F0E949F00812F0E949F008F2D0E94E0
:1001E0009F000E9474001F910F91FF900895CF927D
:1001F000DF92EF92FF920F931F93D82E7A018B011B
:10020000C22E0E945E00D801C7012FE0B695A795C7
:10021000979587952A95D1F782709CEFD9228D29E1
:100220000E949F008F2D0E949F008E2D0E949F0094
:100230008C2D0E949F000E94740084ED90E3019732
:10024000F1F71F910F91FF90EF90DF90CF900895FD
:100250009F92AF92BF92CF92DF92EF92FF920F9355
:100260001F93982E7A018B010E945E00570168014E
:100270003FE0D694C794B794A7943A95D1F782E01B
:10028000A822892D8C7F8A290E949F008F2D0E9491
:100290009F008E2D0E949F000E945E008DEF98228D
:1002A00081E0982A892D8A290E949F0080E00E947F
:1002B0008000182F0E947400812F1F910F91FF90D2
:1002C000EF90DF90CF90BF90AF909F9008950F93E5
:1002D0001F938C010E945E0080E90E949F00812F85
:1002E0000E949F00802F0E949F000E945E0081E973
:1002F0000E949F0080E00E948000182F0E947400DE
:10030000812F1F910F9108951F93182F0E945E0057
:1003100080E90E949F00812F0E949F000E945E0042
:1003200081E90E949F0080E00E948000182F0E94B7
:100330007400812F1F9108950F931F93182F062F7C
:100340000E945E0080E90E949F00812F0E949F0012
:10035000802F0E949F000E9474001F910F910895AA
:10036000982F8091C00085FFFCCF9093C60080E05D
:1003700090E00895FC0107C08091C00085FFFCCF8C
:100380009093C600319690819923B1F70895982FE4
:100390008091C80085FFFCCF9093CE0080E090E074
:1003A0000895FC0107C08091C80085FFFCCF9093A1
:1003B000CE00319690819923B1F7089580E490E0C2
:1003C0009093CD008093CC00E8ECF0E080818260D7
:1003D00080831092C50080E48093C400E0ECF0E0DC
:1003E00080818D7F8083E1ECF0E08081886980836B
:1003F00096E09093C200E9ECF0E080818869808308
:100400009093CA000895282F892F922F0895EF9274
:10041000FF920F931F93292F332744275527162F19
:100420000027FF24EE2460709070E62AF72A082B3C
:10043000192BE22AF32A042B152B502F4F2D3E2D7A
:100440002227207030705070D801C70180709070E2
:10045000B070892F9A2FAB2FBB27282B392B4A2B13
:100460005B2B8FEF90E0A0E0BFEFE822F9220A2398
:100470001B232E293F29402B512BB901CA011F9163
:100480000F91FF90EF9008951F920F920FB60F9269
:1004900011248F939F93EF93FF939091C6008091C7
:1004A0009A02813021F0823009F083C007C0809128
:1004B000C80085FFFCCF9093CE007BC080913D03A8
:1004C000853039F480919D02981719F481E080936A
:1004D0003D0380913D03853041F480919D02981742
:1004E00021F010923D0310923C0380913D03843033
:1004F00071F485E080933D03E0913C03F0E0EA5520
:10050000FD4F908380913C038F5F80933C038091EB
:100510003D03833071F484E080933D03E0913C031C
:10052000F0E0EA55FD4F908380913C038F5F80930C
:100530003C0380913D03882329F4903A19F482E02A
:1005400080933D0380913D03823029F4923A19F45F
:1005500083E080933D0380913D038A3029F4933BEF
:1005600019F48BE080933D0380913D038A3029F498
:10057000933B19F081E080933D0380913D038130EE
:1005800029F4903B19F48AE080933D0380913D0368
:10059000813021F080913D038A3059F4E0913C0391
:1005A000F0E0EA55FD4F908380913C038F5F80938C
:1005B0003C03FF91EF919F918F910F900FBE0F9091
:1005C0001F9018951F920F920FB60F9211248F93C0
:1005D0009F938091A4028F5F8093A4028091A202D6
:1005E0008823D1F08091A202813049F49091A40235
:1005F0008091A302891718F4149A82E008C09091A0
:10060000A4028091A302891740F4149881E080939A
:10061000A2021092A40201C014989F918F910F9092
:100620000FBE0F901F901895EF92FF920F931F939C
:10063000CF93DF93C2E4D3E0EE24FF24870180EA66
:10064000B801A70129910E94F7000894E11CF11C50
:10065000011D111D83E0CC34D80789F7DF91CF91BC
:100660001F910F91FF90EF90089510923E0310920A
:100670003F03109240031092410317C080EA20E02C
:100680000E94F70080913E0390913F03A0914003A8
:10069000B09141030196A11DB11D80933E0390933B
:1006A0003F03A0934003B093410340913E03509118
:1006B0003F036091400370914103483C510561053F
:1006C0007105E1F60895EF92FF920F931F93CF9378
:1006D000DF93C2E4D3E0EE24FF24870180EAB8016F
:1006E000A7010E94280189930894E11CF11C011DB7
:1006F000111D83E0CC34D80789F7DF91CF911F918A
:100700000F91FF90EF900895EF92FF920F931F9338
:10071000AAE0EA2EF12C012D112D11C080EAB801BA
:10072000A7010E942801982F8091C80085FFFCCF67
:100730009093CE000894E11CF11C011D111DE09165
:100740004C03F0914D0382819381A481B581E81619
:10075000F9060A071B0711F71F910F91FF90EF9001
:100760000895FF920F931F93CF93DF938C01FF2483
:1007700022C040913E0350913F036091400370912D
:100780004103C00FD11F80EA28810E94F7008091A9
:100790003E0390913F03A0914003B0914103019625
:1007A000A11DB11D80933E0390933F03A09340038E
:1007B000B0934103F394CF2DD0E0F80101900020D5
:1007C000E9F73197E01BF10BCE17DF0790F2DF91CD
:1007D000CF911F910F91FF9008958F929F92AF92AA
:1007E000BF92CF92DF92EF92FF920F931F93DF930E
:1007F000CF93CDB7DEB764970FB6F894DEBF0FBEC8
:10080000CDBF3F982298509852980E9854980F9ABE
:10081000519A539A559A3A9A81B1806381B9429A12
:10082000149A82E08093800080918100856080939B
:1008300081008FEF9FEF90938900809388008091D3
:100840006F00826080936F0081E08093A2028AE053
:100850008093A302149A5D9A3799FECF80EA9FE0B5
:100860002AEF30E0F9013197F1F70197D9F70E94AB
:10087000DE01789414980E94630382E493E09093DD
:100880004D0380934C038091440390914503A091C4
:100890004603B091470380933E0390933F03A09398
:1008A0004003B0934103159A80E197E22AEF30E0CC
:1008B000F9013197F1F70197D9F780E091E00E94B3
:1008C000BA01FE01319684E1DF011D928A95E9F7B4
:1008D000159882E080939A0210E039E2932E2CE082
:1008E000822EFE2E0F2F9EE2E92EBB24B39485E0CC
:1008F000A82EBAEFCB2ED12C80913D038B3009F07E
:10090000B5C180919C02181708F4B0C190929D0265
:1009100080923D038091BF029091C002A091C102DC
:10092000B091C2020097A105B105B1F01092A202E8
:10093000149A8CEB92E0F6013197F1F70197D9F711
:1009400014988CEB92E0F6013197F1F70197D9F703
:10095000149AB092A50206C0B092A202A092A3027D
:100960001092A5028091A502813009F045C08091C6
:100970009B02813011F540913E0350913F036091FD
:1009800040037091410380EA2CE30E94F700159A1E
:1009900080913E0390913F03A0914003B0914103A9
:1009A0000196A11DB11D80933E0390933F03A09338
:1009B0004003B093410310929B0240913E0350913B
:1009C0003F03609140037091410380EA27E40E9455
:1009D000F70080913E0390913F03A0914003B091B6
:1009E00041030196A11DB11D80933E0390933F03E7
:1009F000A0934003B09341038BE191E00E94D101A9
:100A00006091BF027091C0028091C1029091C202B8
:100A10000E94070220E836E948E950E00E944909AF
:100A2000CA01B9014F2D502F2AE030E00E946B0916
:100A30008F2D902F0E94D1018091A502813019F550
:100A40008F2D902F0E94B10340913E0350913F03A0
:100A5000609140037091410380EA2EE20E94F7000A
:100A600080913E0390913F03A0914003B0914103D8
:100A70000196A11DB11D80933E0390933F03A09367
:100A80004003B09341038091C80085FFFCCFE09202
:100A9000CE006091BF027091C0028091C10290911E
:100AA000C2020E94070220E836E948E950E00E94AD
:100AB000490924E630E040E050E00E944909CA01BB
:100AC000B9014F2D502F2AE030E00E946B098F2D85
:100AD000902F0E94D1018091A502813019F58F2DB0
:100AE000902F0E94B10340913E0350913F036091CB
:100AF00040037091410380EA2CE20E94F70080914C
:100B00003E0390913F03A0914003B09141030196B1
:100B1000A11DB11D80933E0390933F03A09340031A
:100B2000B093410388E291E00E94D1018BE291E011
:100B30000E94D1016091C3027091C4028091C502EC
:100B40009091C6020E94070220E836E948E950E089
:100B50000E944909CA01B9014F2D502F2AE030E007
:100B60000E946B098F2D902F0E94D1018091A502C8
:100B7000813019F58F2D902F0E94B10340913E03D3
:100B800050913F03609140037091410380EA2EE24F
:100B90000E94F70080913E0390913F03A091400393
:100BA000B09141030196A11DB11D80933E03909326
:100BB0003F03A0934003B09341038091C80085FF99
:100BC000FCCFE092CE006091C3027091C40280918C
:100BD000C5029091C6020E94070220E836E948E962
:100BE00050E00E94490924E630E040E050E00E94D5
:100BF0004909CA01B9014F2D502F2AE030E00E9467
:100C00006B098F2D902F0E94D1018091A502813018
:100C100019F58F2D902F0E94B10340913E03509102
:100C20003F03609140037091410380EA2BE30E94EF
:100C3000F70080913E0390913F03A0914003B09153
:100C400041030196A11DB11D80933E0390933F0384
:100C5000A0934003B093410388E291E00E94D10148
:100C600010923C0310923D0310E009C080913D03B7
:100C70008B3029F41F5F10923C0310923D03379B89
:100C80003BCE3799FECF40913E0350913F03609198
:100C9000400370914103E0914C03F0914D03828138
:100CA0009381A481B58184179507A607B70738F506
:100CB00080EA2EE30E94F70080913E0390913F036B
:100CC000A0914003B09141030196A11DB11D8093F5
:100CD0003E0390933F03A0934003B0934103E09100
:100CE0004C03F0914D03208131812F5F3F4F3183C1
:100CF000208382839383A483B5830E94140388E8AE
:100D000093E1F6013197F1F70197D9F74298F4CDC5
:100D10001F920F920FB60F9211240F931F932F93D0
:100D20003F934F935F936F937F938F939F93AF9373
:100D3000BF93EF93FF93DF93CF93CDB7DEB72A979F
:100D4000DEBFCDBF8E010F5F1F4F8AE0F801119209
:100D50008A95E9F78091CE00813339F481E0809360
:100D60009A0284E18093A3027CC2823339F482E048
:100D700080939A0281E08093A20273C2833341F48C
:100D800010929A0284E18093A3020E94840369C2B4
:100D9000843321F510929A0284E18093A302E091BA
:100DA0004C03F0914D03118210822AE030E040E0C4
:100DB00050E0228333834483558380E890E0978317
:100DC000868388E5808720933E0330933F034093DA
:100DD0004003509341030E94140343C2853309F03A
:100DE0003FC010929A0284E18093A302E0914C03E9
:100DF000F0914D036281738184819581A8012AE07D
:100E000030E00E946B0988E391E00E94D101C801A3
:100E10000E94D1018DE491E00E94D10160913E03D6
:100E200070913F038091400390914103A8012AE013
:100E300030E00E946B09C8010E94D10180E691E078
:100E40000E94D101E0914C03F0914D0360817181CA
:100E500080E090E0A8012AE030E00E946B0909C11F
:100E6000863309F00EC110929A0284E18093A302A6
:100E700081E00E94840190E0A0E0B0E0BC01CD01DF
:100E8000A8012AE030E00E946B098FE691E00E9401
:100E9000D101C8010E94D10188E291E00E94D101F4
:100EA0008AE00E94840190E0A0E0B0E0BC01CD01A6
:100EB000A8012AE030E00E946B0989E891E00E94D5
:100EC000D101C8010E94D10188E291E00E94D101C4
:100ED0008BE00E94840190E0A0E0B0E0BC01CD0175
:100EE000A8012AE030E00E946B0982EA91E00E94AA
:100EF000D101C8010E94D10188E291E00E94D10194
:100F00008CE00E94840190E0A0E0B0E0BC01CD0143
:100F1000A8012AE030E00E946B098BEB91E00E946F
:100F2000D101C8010E94D10188E291E00E94D10163
:100F30008DE00E94840190E0A0E0B0E0BC01CD0112
:100F4000A8012AE030E00E946B0982ED91E00E9446
:100F5000D101C8010E94D10188E291E00E94D10133
:100F60008EE00E94840190E0A0E0B0E0BC01CD01E1
:100F7000A8012AE030E00E946B0989EE91E00E940E
:100F8000D101C8010E94D10188E291E00E94D10103
:100F90008FE00E94840190E0A0E0B0E0BC01CD01B0
:100FA000A8012AE030E00E946B098DEF91E00E94D9
:100FB000D101C8010E94D10188E291E00E94D101D3
:100FC00080E10E94840190E0A0E0B0E0BC01CD018E
:100FD000A8012AE030E00E946B0981E192E00E94C2
:100FE000D101C8010E94D10188E291E00E94D101A3
:100FF00081E10E94840190E0A0E0B0E0BC01CD015D
:10100000A8012AE030E00E946B0982E392E00E948E
:10101000D101C8010E94D10188E291E00E94D10172
:1010200081E60E94840190E0A0E0B0E0BC01CD0127
:10103000A8012AE030E00E946B0983E592E00E945B
:10104000D101C8010E94D10188E291E00E94D10142
:1010500082E60E94840190E0A0E0B0E0BC01CD01F6
:10106000A8012AE030E00E946B0982E792E00E942A
:10107000D101C8010E94D10188E291E00E94D10112
:10108000F0C0813471F410929A0284E18093A3023B
:10109000E0914C03F0914D036081718180E090E01C
:1010A0000FC08234A1F410929A0284E18093A302CB
:1010B000E0914C03F0914D036281738184819581AD
:1010C000A8012AE030E00E946B09C801D7CF8A3519
:1010D00009F0C7C010929A0284E18093A30287E9C5
:1010E00092E00E94D101E0914C03F0914D036081A8
:1010F000718180E090E0A8012AE030E00E946B0955
:10110000C8010E94D1018091C80085FFFCCF8CE20C
:101110008093CE00E0914C03F0914D036281738186
:10112000848195818E010F5F1F4FA8012AE030E076
:101130000E946B09C8010E94D1018091C80085FFFF
:10114000FCCF8CE28093CE0081E00E94840190E08D
:10115000A0E0B0E0BC01CD018E010F5F1F4FA801E0
:101160002AE030E00E946B09C8010E94D101809101
:10117000C80085FFFCCF8CE28093CE008CE00E94FB
:101180008401182F8DE00E948401312F20E0280F68
:10119000311D55E0359527955A95E1F7442737FDE0
:1011A0004095542FCA01B9018E010F5F1F4FA8014E
:1011B0002AE030E00E946B09C8010E94D1018091B1
:1011C000C80085FFFCCF8CE28093CE008AE00E94AD
:1011D0008401182F8BE00E948401312F20E0280F1A
:1011E000311D45E0359527954A95E1F7442737FDB0
:1011F0004095542FCA01B9018E010F5F1F4FA801FE
:101200002AE030E00E946B09C8010E94D101809160
:10121000C80085FFFCCF8CE28093CE008EE00E9458
:101220008401182F8FE00E948401312F20E0280FC5
:10123000311D442737FD4095542FCA01B9018E0155
:101240000F5F1F4FA8012AE030E00E946B09C80120
:101250000E94D1018091C80085FFFCCF8BE3809371
:10126000CE002A96DEBFCDBFCF91DF91FF91EF91E7
:10127000BF91AF919F918F917F916F915F914F91AE
:101280003F912F911F910F910F900FBE0F901F90C4
:101290001895A1E21A2EAA1BBB1BFD010DC0AA1FA7
:1012A000BB1FEE1FFF1FA217B307E407F50720F0CF
:1012B000A21BB30BE40BF50B661F771F881F991F4A
:1012C0001A9469F760957095809590959B01AC0193
:1012D000BD01CF010895FA01CF93FF93EF93223020
:1012E00044F1253234F5C22FE894CA3049F497FB13
:1012F0003EF490958095709561957F4F8F4F9F4FED
:101300002C2F332744275527FF93EF930E94490939
:10131000EF91FF91605D6A330CF0695D6193B901F3
:10132000CA01605070408040904051F716F4CDE201
:10133000C19310828F919F91CF910C949F09DC01F2
:10134000FC01672F71917723E1F7329704C07C91FC
:101350006D9370836291AE17BF07C8F30895F89438
:02136000FFCFBD
:1013620024505352463130302C302C393630302C08
:10137200382C312C302A30430D0A004C61746974C8
:101382007564653A202020000D0A004C6F6E677468
:1013920069747564653A20002041647265737365EF
:1013A20020696D20454550524F4D3A20002041643E
:1013B200726573736520616B7475656C6C3A20009D
:1013C20020446174656E736165747A653A20002009
:1013D2005374617475732052656769737465722002
:1013E2002830783031293A20002054656D706572BA
:1013F20061747572204D5342202830783041293A69
:1014020020002054656D70657261747572204C53B2
:1014120042202830783042293A2000205370616EF1
:101422006E756E67204D5342202830783043293A3A
:101432002000205370616E6E756E67204C534220FF
:101442002830783044293A2000205374726F6D207E
:101452004D5342202830783045293A2000205374D9
:10146200726F6D204C5342202830783046293A2042
:101472000020416363756D756C617465642020534F
:1014820074726F6D204D5342202830783130293AE2
:10149200200020416363756D756C61746564202062
:1014A2005374726F6D204C534220283078313129A9
:1014B2003A2000204F66667365742042696173208A
:1014C2005265676973746572202830783631293A1B
:1014D200200020416363756D756C6174696F6E20C5
:1014E200426961732052656769737465722028309E
:0E14F200783632293A2000362C0003010529F5
:00000001FF
